:100000000C9434000C9451000C9451000C94510049
:100010000C9451000C9451000C9451000C9451001C
:100020000C9451000C9451000C9451000C9451000C
:100030000C9451000C94B0030C9451000C9451009A
:100040000C9451000C9451000C9451000C945100EC
:100050000C9451000C9451000C9451000C945100DC
:100060000C9451000C94510011241FBECFEFD8E026
:10007000DEBFCDBF11E0A0E0B1E0E6E3F2E102C0F7
:1000800005900D92A03FB107D9F721E0A0EFB1E0B4
:1000900001C01D92AC3FB207E1F70E94EA030C9445
:1000A00019090C9400008091C00087FFFCCF80915B
:1000B000C60090E00895CF93C82F8A3019F48DE0E0
:1000C0000E945B0059988FE991E00197F1F700C019
:1000D000000020E030E08C2FCC0F990BAC01022EF9
:1000E00002C0559547950A94E2F740FF02C0599A1D
:1000F00001C05998EFE9F1E03197F1F700C0000035
:100100002F5F3F4F2830310549F7599A8FE991E029
:100110000197F1F700C0000080E090E0CF910895D2
:1001200087E690E09093C5008093C400519AE1EC7B
:10013000F0E0808180618083E2ECF0E08081866085
:1001400080838081877F808380818F7C808360E053
:1001500070E08BE590E00E943E0463E570E080E093
:1001600090E00E943E0485E28F9380E88F9386E0C2
:1001700091E09F938F930E94FF040F900F900F9038
:100180000F90089561507109FC01E60FF71FDF0120
:100190001296480F591FE417F50720F080818E93BF
:1001A0003197F9CF0895FC01E40FF51FDF01119697
:1001B00061507109680F791F6E177F0718F08D91D4
:1001C0008193FACF08952F923F925F926F927F9220
:1001D0008F929F92AF92BF92CF92DF92EF92FF9257
:1001E0000F931F93CF93DF93CDB7DEB729970FB649
:1001F000F894DEBF0FBECDBF5C01062F572E5A8389
:1002000049833E832D83DC011C927F936F930E9470
:10021000FF040F900F90C12CD12C20E0E12CF12C89
:100220001986188673E2272E71E0372EEAE28E2EA9
:10023000E1E09E2EE981FA813197FC83EB838D8189
:100240009E812F830E948904182F2F818B3121F4E6
:10025000CC24C394D12C1EC08D35F1F0883411F11B
:10026000863409F449C0C114D10409F46FC0F1E027
:10027000CF16D10409F03BC28B3561F0843409F408
:1002800093C1833409F4AEC1833309F023C252E031
:10029000C52ED12C212FD3CFF1E0CF16D10409F0F8
:1002A00022C2F8CF21E0C216D10409F01CC283E0BB
:1002B0008F9388EE8F931F924BE1D42EDF923F9263
:1002C0002F920E94FF04A02FB52DFD010190002068
:1002D000E9F73197EA1BFB0BFF93EF931F92DF9235
:1002E0009F928F920E94FF040FB6F894DEBF0FBE5C
:1002F000CDBFC12CD12C55C191E0C916D10409F054
:10030000F2C183E08F9388EE8F931F923BE1D32E4F
:10031000DF923F922F920E94FF04A02FB52DFD0186
:1003200001900020E9F73197EA1BFB0BEE0DFF1D52
:10033000FF93EF931F92DF929F928F920E94FF0490
:100340000FB6F894DEBF0FBECDBF33C080320CF4C1
:1003500049C08F3709F4A3C1288539858B819C81D9
:100360002817390758F06091F4017091F50187E082
:1003700090E00E94C704C12CD12C8CCFC884D984B2
:10038000CA0CDB1C288539852F5F3F4F3901288532
:1003900039852E153F0581F4D6011C937301F501B3
:1003A000E60DF71D1082812F012E000C990B0E9483
:1003B0001505F986E886DFCF48855985B701C5015F
:1003C0000E94C200F6011083DF92CF92ABE3B1E04E
:1003D000BF93AF930E94FF0479866886FFEFEF1A00
:1003E000FF0A36C1883009F063C028853985232B80
:1003F00049F46091F4017091F50187E090E00E946A
:10040000C70448CF888599850197288539852E1599
:100410003F0581F47C01F501E80FF91F1082A1E38B
:10042000B1E0BF93AF930E94FF040F900F90F98645
:10043000E88630CF99878887AC01B701C5010E9453
:10044000D300F1E0EF1AF108F501EE0DFF1D108267
:1004500088E090E00E941505888599858A0D9B1D8E
:100460009F938F93A5E3B1E0BF93AF930E94FF04E6
:1004700083E08F9388EE8F931F922BE1722E7F92F1
:100480003F922F920E94FF04A02FB52DFD010190F5
:100490000020E9F73197EA1BFB0B28853985E20F2D
:1004A000F31FFF93EF931F927F929F928F9243C00F
:1004B000823109F048C08DE090E00E941505612C62
:1004C000712CA981BA816A167B0641F080E290E026
:1004D0000E9415059FEF691A790AF3CF8DE090E02D
:1004E0000E941505BF92AF925F920F93A9E3B1E00E
:1004F000BF93AF930E94FF0483E08F9388EE8F93A6
:100500001F929BE1792E7F923F922F920E94FF04CF
:10051000A02FB52DFD0101900020E9F73197EA1BCE
:10052000FB0B28853985E20FF31FFF93EF931F9292
:100530007F929F928F920E94FF040FB6F894DEBFC5
:100540000FBECDBFA7CE833009F0A9C0D5011C9244
:100550008DE090E00E941505E12CF12CE981FA81F3
:10056000EE16FF0641F080E290E00E941505BFEF15
:10057000EB1AFB0AF3CF8DE090E00E941505BF92C5
:10058000AF925F920F93A9E3B1E0BF93AF930E9444
:10059000FF040F900F900F900F900F900F90E12C91
:1005A000F12C1986188676CE2B3509F093C0288554
:1005B00039852115310509F4D6CE21503109398705
:1005C00028871F9281E08F931F928BE18F933F9238
:1005D0002F920E94FF040F900F900F900F900F909A
:1005E0000F90C9CE2B3509F075C0288539858B81D0
:1005F0009C812817390708F0B6CE2F5F3F4F398707
:1006000028871F9281E08F931F928BE18F939F9297
:100610008F92DFCF48855985B701C5010E94D3006D
:1006200031E0E31AF108F501EE0DFF1D108288E0BC
:1006300090E00E9415058885998501978A0D9B1D7C
:100640009F938F93A5E3B1E0BF93AF930E94FF0404
:1006500083E08F9388EE8F931F928BE1D82EDF92E9
:100660003F922F920E94FF04A02FB52DFD01019013
:100670000020E9F73197EA1BFB0B28853985E20F4B
:10068000F31FFF93EF931F92DF929F928F920E942E
:10069000FF040FB6F894DEBF0FBECDBF6CCE8AE06C
:1006A00090E029960FB6F894DEBF0FBECDBFDF9164
:1006B000CF911F910F91FF90EF90DF90CF90BF905F
:1006C000AF909F908F907F906F905F903F902F9012
:1006D0000C941505812F012E000C990B9F931F93ED
:1006E000AEE3B1E012C0C114D10409F435CEF2E09A
:1006F000CF16D10421F51E3789F0812F012E000C71
:10070000990B9F931F93A9E6B1E0BF93AF930E940B
:10071000FF040F900F900F900F902DCE28853985F4
:100720002E153F0509F076CF6091F4017091F50127
:1007300087E090E00E94C704E884F9841CCE812FF2
:10074000012E000C990B9F931F93A5E9B1E0BF9375
:10075000AF930E94FF040F900F900F900F909ACDCF
:100760001F920F920FB60F9211248F939F93809137
:10077000F101882399F08091F001882311F04098CD
:1007800001C0409A8DED91EF909385008093840095
:100790009091F00181E089278093F0019F918F91E2
:1007A0000F900FBE0F901F901895E1E8F0E0808148
:1007B000856080838DED91EF909385008093840018
:1007C000EFE6F0E0808181608083389A1092F0013A
:1007D00078940895CF93DF93CDB7DEB7C054D10995
:1007E0000FB6F894DEBF0FBECDBF0E9490000E94EE
:1007F000D50304EB11E0FF24F3941F930F930E94A1
:10080000FF042091F2013091F30140E450E06AEBE3
:1008100071E0CE0101960E94E300BE016F5F7F4F41
:100820008DEB91E00E9435040F900F90892B39F4E5
:1008300080EC91E00E941C05F092F101DECFBE0138
:100840006F5F7F4F8FEC91E00E943504892B41F45C
:1008500083ED91E00E941C051092F1014098CDCFEC
:1008600083EE91E00E941C05C8CFFB01DC018D9155
:10087000019080190110D9F3990B08950F931F93DC
:10088000CF93DF93009731F46115710519F480E07F
:1008900090E03AC08B01EC016EE070E081E090E006
:1008A0000E941E07FC01892B91F380E883830115C8
:1008B000110571F01387028781E883838091F2012B
:1008C0009091F301892B21F4F093F301E093F2016D
:1008D0002097C9F0D187C08783818260838380910C
:1008E000F4019091F501892B71F4F093F501E093F7
:1008F000F4018091F6019091F701892B21F4F09396
:10090000F701E093F601CF01DF91CF911F910F9195
:100910000895CF93DF93EC012B8120FF33C026FF96
:100920000AC02F7B2B838E819F8101969F838E83AC
:100930008A8190E029C022FF0FC0E881F98180817F
:10094000082E000C990B009719F420622B831AC013
:100950003196F983E8830EC0EA85FB85099597FFF8
:1009600009C02B81019611F080E201C080E1822B49
:100970008B8308C02E813F812F5F3F4F3F832E83A3
:10098000992702C08FEF9FEFDF91CF9108950F93CA
:100990001F93CF93DF93FB01238121FD03C08FEFD2
:1009A0009FEF28C022FF16C04681578124813581E0
:1009B0004217530744F4A081B1819D012F5F3F4F3F
:1009C000318320838C93268137812F5F3F4F37837C
:1009D000268310C0EB01092F182F0084F185E02D2C
:1009E0000995892BE1F68E819F8101969F838E83E5
:1009F000812F902FDF91CF911F910F910895A0E04B
:100A0000B0E0E5E0F5E00C94F208AE014B5F5F4F1B
:100A1000FA0161917191AF018091F4019091F5011A
:100A20000E944C05E2E00C940E096091F401709173
:100A3000F5010E94C70408950F931F93CF93DF938E
:100A4000E091F401F091F501238121FF1BC08C019D
:100A5000D0E0C0E0F80181918F016091F4017091C4
:100A6000F501DB011896ED91FC911997882331F07F
:100A70000995892B79F3DFEFCFEFECCF8AE0099569
:100A8000892B19F08FEF9FEF02C08D2F9C2FDF91E4
:100A9000CF911F910F910895ACE0B0E0E2E5F5E051
:100AA0000C94E2087C016B018A01FC01178216821A
:100AB000838181FFBDC1CE0101964C01F701938175
:100AC000F60193FD859193FF81916F01882309F4CD
:100AD000ABC1853239F493FD859193FF81916F010C
:100AE000853229F4B70190E00E94C704E7CF512C6A
:100AF000312C20E02032A0F48B3269F030F48032C7
:100B000059F0833269F420612CC08D3239F0803382
:100B100039F4216026C02260246023C0286021C0EF
:100B200027FD27C030ED380F3A3078F426FF06C095
:100B3000FAE05F9E300D1124532E13C08AE0389ED8
:100B4000300D1124332E20620CC08E3221F426FD8C
:100B50006BC1206406C08C3611F4206802C0883650
:100B600041F4F60193FD859193FF81916F0181110D
:100B7000C1CF982F9F7D9554933028F40C5F1F4F61
:100B8000FFE3F9830DC0833631F0833771F083358D
:100B900009F05BC022C0F801808189830E5F1F4F7E
:100BA00044244394512C540115C03801F2E06F0ED7
:100BB000711CF801A080B18026FF03C0652D70E094
:100BC00002C06FEF7FEFC5012C870E9479082C01CE
:100BD00083012C852F77222E17C03801F2E06F0E8B
:100BE000711CF801A080B18026FF03C0652D70E064
:100BF00002C06FEF7FEFC5012C870E9467082C01B0
:100C00002C852068222E830123FC1BC0832D90E0BD
:100C100048165906B0F4B70180E290E00E94C7047C
:100C20003A94F4CFF50127FC859127FE81915F016D
:100C3000B70190E00E94C70431103A94F1E04F1AD6
:100C400051084114510471F7E5C0843611F089361A
:100C500039F5F80127FF07C0608171818281938196
:100C60000C5F1F4F08C060817181072E000C880B3C
:100C7000990B0E5F1F4F2F76722E97FF09C090952C
:100C80008095709561957F4F8F4F9F4F2068722E92
:100C90002AE030E0A4010E948408A82EA81844C0CD
:100CA000853729F42F7EB22E2AE030E025C0F22FBE
:100CB000F97FBF2E8F36C1F018F4883579F0B4C0B3
:100CC000803719F0883721F0AFC02F2F2061B22E66
:100CD000B4FE0DC08B2D8460B82E09C024FF0AC05D
:100CE0009F2F9660B92E06C028E030E005C020E1B5
:100CF00030E002C020E132E0F801B7FE07C06081B9
:100D00007181828193810C5F1F4F06C06081718168
:100D100080E090E00E5F1F4FA4010E948408A82E7F
:100D2000A818FB2DFF777F2E76FE0BC0372D3E7F58
:100D3000A51450F474FE0AC072FC08C0372D3E7E24
:100D400005C0BA2C372D03C0BA2C01C0B52C34FF16
:100D50000DC0FE01EA0DF11D8081803311F4397E52
:100D600009C032FF06C0B394B39404C0832F8678C1
:100D700009F0B39433FD13C030FF06C05A2CB314EE
:100D800018F4530C5B18B32CB31468F4B70180E269
:100D900090E03C870E94C704B3943C85F5CFB31420
:100DA00010F43B1801C0312C34FF12C0B70180E3AE
:100DB00090E03C870E94C7043C8532FF17C031FD9C
:100DC00003C088E790E002C088E590E0B7010CC05E
:100DD000832F867859F031FF02C08BE201C080E298
:100DE00037FD8DE2B70190E00E94C704A51438F4E6
:100DF000B70180E390E00E94C7045A94F7CFAA9409
:100E0000F401EA0DF11D8081B70190E00E94C70452
:100E1000A110F5CF332009F451CEB70180E290E064
:100E20000E94C7043A94F6CFF7018681978102C0E9
:100E30008FEF9FEF2C96E2E10C94FE080F931F9327
:100E4000CF93DF93869F8001879F100D969F100D93
:100E50001124C8010E943A07EC01009729F0A8016B
:100E600060E070E00E947208CE01DF91CF911F9187
:100E70000F910895CF93DF938230910510F482E0B3
:100E800090E0E091FA01F091FB0120E030E0C0E059
:100E9000D0E0309711F14081518148175907C0F0D7
:100EA0004817590761F482819381209719F09B8339
:100EB0008A832BC09093FB018093FA0126C02115F1
:100EC000310519F04217530718F49A01BE01DF01EA
:100ED000EF010280F381E02DDCCF2115310509F10E
:100EE000281B390B2430310590F412968D919C917A
:100EF00013976115710521F0FB019383828304C070
:100F00009093FB018093FA01FD01329644C0FD01EC
:100F1000E20FF31F81939193225031092D933C935B
:100F20003AC02091F8013091F901232B41F420912E
:100F30000201309103013093F9012093F8012091CF
:100F40000001309101012115310541F42DB73EB763
:100F50004091040150910501241B350BE091F801EB
:100F6000F091F901E217F307A0F42E1B3F0B2817AD
:100F7000390778F0AC014E5F5F4F2417350748F012
:100F80004E0F5F1F5093F9014093F80181939193A5
:100F900002C0E0E0F0E0CF01DF91CF9108950F9320
:100FA0001F93CF93DF93009709F48CC0FC01329715
:100FB000138212820091FA011091FB0101151105B3
:100FC00081F420813181820F931F2091F8013091AB
:100FD000F9012817390779F5F093F901E093F80141
:100FE00071C0D80140E050E0AE17BF0750F4129630
:100FF0002D913C911397AD012115310509F1D901CE
:10100000F3CF9D01DA013383228360817181860FE2
:10101000971F8217930769F4EC0128813981260F05
:10102000371F2E5F3F4F318320838A819B819383BB
:101030008283452B29F4F093FB01E093FA0142C02F
:101040001396FC93EE931297ED01499159919E01ED
:10105000240F351FE217F30771F480819181840F0B
:10106000951F029611969C938E938281938113967D
:101070009C938E931297E0E0F0E0D80112968D9148
:101080009C911397009719F0F8018C01F6CF8D9180
:101090009C9198012E5F3F4F820F931F2091F80182
:1010A0003091F9012817390769F4309729F4109223
:1010B000FB011092FA0102C0138212821093F9010F
:1010C0000093F801DF91CF911F910F910895FC01DA
:1010D0000590615070400110D8F7809590958E0F63
:1010E0009F1F0895DC0101C06D9341505040E0F70F
:1010F0000895FC016150704001900110D8F780956F
:1011000090958E0F9F1F0895FA01AA27283051F15C
:10111000203181F1E8946F936E7F6E5F7F4F8F4F28
:101120009F4FAF4FB1E03ED0B4E03CD0670F781F87
:10113000891F9A1FA11D680F791F8A1F911DA11D6C
:101140006A0F711D811D911DA11D20D009F46894A5
:101150003F912AE0269F11243019305D3193DEF64D
:10116000CF010895462F4770405D4193B3E00FD003
:10117000C9F7F6CF462F4F70405D4A3318F0495DEE
:1011800031FD4052419302D0A9F7EACFB4E0A695D1
:101190009795879577956795BA95C9F700976105F3
:1011A000710508959B01AC010A2E06945795479549
:1011B00037952795BA95C9F7620F731F841F951F3E
:1011C000A01D08952F923F924F925F926F927F924F
:1011D0008F929F92AF92BF92CF92DF92EF92FF9247
:1011E0000F931F93CF93DF93CDB7DEB7CA1BDB0BF3
:1011F0000FB6F894DEBF0FBECDBF09942A88398898
:1012000048885F846E847D848C849B84AA84B9849E
:10121000C884DF80EE80FD800C811B81AA81B981AA
:10122000CE0FD11D0FB6F894DEBF0FBECDBFED01BE
:061230000895F894FFCFC1
:101236000000FC0120000A0A5541525420696E69DB
:101246007469616C697A65642028256920384E3195
:10125600290A0025635B2569440025635B256943EC
:101266000008200800257320002573257300446FAD
:101276006E2774206B6E6F7720686F7720746F20EF
:1012860068616E646C65203078257820696E20452B
:101296005343206D6F64650A00446F6E2774206B9C
:1012A6006E6F7720686F7720746F2068616E646C4C
:1012B60065203078257820696E2045534333206DAC
:1012C6006F64650A00446F6E2774206B6E6F77201B
:1012D600686F7720746F2068616E646C6520307863
:1012E60025780A007265616479003E20006F6E0001
:1012F6006F6E2069732073656C6563746564006F37
:10130600666600656E642069732073656C65637438
:10131600656400796F752062726F6B652069740071
:00000001FF
