:100000000C9434000C9451000C9451000C94510049
:100010000C9451000C9451000C9451000C9451001C
:100020000C9451000C9451000C9451000C9451000C
:100030000C9451000C9451000C9451000C945100FC
:100040000C9451000C9451000C9470000C945100CD
:100050000C9451000C9451000C9451000C945100DC
:100060000C9451000C94510011241FBECFEFD8E026
:10007000DEBFCDBF21E0A6E0B1E001C01D92A235F8
:10008000B207E1F711E0A0E0B1E0E4EBFAE002C072
:1000900005900D92A630B107D9F70E94E4000C94A8
:1000A00058050C940000CF93C82F8091C00085FFA5
:1000B000FCCFCA3019F48DE00E9453008091C0003B
:1000C00085FFFCCFC093C60080E090E0CF910895FB
:1000D0008091C00087FFFCCF8091C60090E008951A
:1000E0001F920F920FB60F9211242F938F939F930D
:1000F000EF93FF938091060190E02091C600FC01F0
:10010000E95FFE4F20831092480101968F73992773
:1001100080930601FF91EF919F918F912F910F9006
:100120000FBE0F901F90189580E190E09093C5004E
:100130008093C4008091C10088608093C100809149
:10014000C10080618093C1008091C200866080936D
:10015000C2008091C200877F8093C2008091C2005C
:100160008F7C8093C2008091C10080688093C10021
:1001700060E070E083E590E00E94F20068E670E0E5
:1001800080E090E00E94F200E7E0F1E080E28193FD
:1001900091E0E734F907D9F71092060178940895B1
:1001A0002A9880688EBD0DB407FEFDCF8FEF8EBDFF
:1001B0000DB407FEFDCF8EB52A9A089583E58CBD58
:1001C0008CE284B92A9A08950E94DE000E9494006D
:1001D00082E00E94D0001F928F930E943D010F90F9
:1001E0000F90F6CF0F931F93CF93DF93009731F4C7
:1001F0006115710519F480E090E03AC08B01EC01C3
:100200006EE070E081E090E00E942503FC01892B04
:1002100091F380E883830115110571F0138702873C
:1002200081E883838091480190914901892B21F4D1
:10023000F0934901E09348012097C9F0D187C08726
:1002400083818260838380914A0190914B01892B45
:1002500071F4F0934B01E0934A0180914C0190912D
:100260004D01892B21F4F0934D01E0934C01CF0116
:10027000DF91CF911F910F910895A0E0B0E0E3E4EA
:10028000F1E00C943105AE014B5F5F4FFA016191D3
:100290007191AF0180914A0190914B010E945301ED
:1002A000E2E00C944D05ACE0B0E0E9E5F1E00C943F
:1002B00021057C016B018A01FC0117821682838172
:1002C00081FFBDC1CE0101964C01F7019381F6017A
:1002D00093FD859193FF81916F01882309F4ABC150
:1002E000853239F493FD859193FF81916F018532B9
:1002F00029F4B70190E00E948B04E7CF512C312CF8
:1003000020E02032A0F48B3269F030F4803259F0D2
:10031000833269F420612CC08D3239F0803339F496
:10032000216026C02260246023C0286021C027FDF0
:1003300027C030ED380F3A3078F426FF06C0FAE0D7
:100340005F9E300D1124532E13C08AE0389E300D6D
:100350001124332E20620CC08E3221F426FD6BC195
:10036000206406C08C3611F4206802C0883641F43F
:10037000F60193FD859193FF81916F018111C1CFAA
:10038000982F9F7D9554933028F40C5F1F4FFFE307
:10039000F9830DC0833631F0833771F0833509F06E
:1003A0005BC022C0F801808189830E5F1F4F442407
:1003B0004394512C540115C03801F2E06F0E711CAA
:1003C000F801A080B18026FF03C0652D70E002C057
:1003D0006FEF7FEFC5012C870E9480042C01830101
:1003E0002C852F77222E17C03801F2E06F0E711C7A
:1003F000F801A080B18026FF03C0652D70E002C027
:100400006FEF7FEFC5012C870E946E042C012C85B5
:100410002068222E830123FC1BC0832D90E0481608
:100420005906B0F4B70180E290E00E948B043A9440
:10043000F4CFF50127FC859127FE81915F01B7017B
:1004400090E00E948B0431103A94F1E04F1A510869
:100450004114510471F7E5C0843611F0893639F53D
:10046000F80127FF07C060817181828193810C5F51
:100470001F4F08C060817181072E000C880B990BFB
:100480000E5F1F4F2F76722E97FF09C090958095B3
:10049000709561957F4F8F4F9F4F2068722E2AE095
:1004A00030E0A4010E94C304A82EA81844C08537D8
:1004B00029F42F7EB22E2AE030E025C0F22FF97FFA
:1004C000BF2E8F36C1F018F4883579F0B4C080376C
:1004D00019F0883721F0AFC02F2F2061B22EB4FE63
:1004E0000DC08B2D8460B82E09C024FF0AC09F2F39
:1004F0009660B92E06C028E030E005C020E130E06B
:1005000002C020E132E0F801B7FE07C060817181CE
:10051000828193810C5F1F4F06C06081718180E0F2
:1005200090E00E5F1F4FA4010E94C304A82EA818DC
:10053000FB2DFF777F2E76FE0BC0372D3E7FA51457
:1005400050F474FE0AC072FC08C0372D3E7E05C010
:10055000BA2C372D03C0BA2C01C0B52C34FF0DC006
:10056000FE01EA0DF11D8081803311F4397E09C04E
:1005700032FF06C0B394B39404C0832F867809F089
:10058000B39433FD13C030FF06C05A2CB31418F4D3
:10059000530C5B18B32CB31468F4B70180E290E0FD
:1005A0003C870E948B04B3943C85F5CFB31410F4C0
:1005B0003B1801C0312C34FF12C0B70180E390E03A
:1005C0003C870E948B043C8532FF17C031FD03C07D
:1005D00088E790E002C088E590E0B7010CC0832F67
:1005E000867859F031FF02C08BE201C080E237FD0E
:1005F0008DE2B70190E00E948B04A51438F4B70196
:1006000080E390E00E948B045A94F7CFAA94F401FF
:10061000EA0DF11D8081B70190E00E948B04A110CA
:10062000F5CF332009F451CEB70180E290E00E946B
:100630008B043A94F6CFF7018681978102C08FEF41
:100640009FEF2C96E2E10C943D050F931F93CF93FF
:10065000DF93869F8001879F100D969F100D1124B8
:10066000C8010E944103EC01009729F0A80160E055
:1006700070E00E947904CE01DF91CF911F910F911C
:100680000895CF93DF938230910510F482E090E0DB
:10069000E0915001F091510120E030E0C0E0D0E065
:1006A000309711F14081518148175907C0F0481720
:1006B000590761F482819381209719F09B838A8383
:1006C0002BC0909351018093500126C02115310514
:1006D00019F04217530718F49A01BE01DF01EF0128
:1006E0000280F381E02DDCCF2115310509F1281BB3
:1006F000390B2430310590F412968D919C9113970B
:100700006115710521F0FB019383828304C09093EE
:10071000510180935001FD01329644C0FD01E20F6A
:10072000F31F81939193225031092D933C933AC04A
:1007300020914E0130914F01232B41F42091020171
:100740003091030130934F0120934E01209100011D
:10075000309101012115310541F42DB73EB740918B
:10076000040150910501241B350BE0914E01F091DD
:100770004F01E217F307A0F42E1B3F0B2817390790
:1007800078F0AC014E5F5F4F2417350748F04E0FED
:100790005F1F50934F0140934E018193919302C08C
:1007A000E0E0F0E0CF01DF91CF9108950F931F9328
:1007B000CF93DF93009709F48CC0FC01329713822A
:1007C000128200915001109151010115110581F41F
:1007D00020813181820F931F20914E0130914F0172
:1007E0002817390779F5F0934F01E0934E0171C056
:1007F000D80140E050E0AE17BF0750F412962D919B
:100800003C911397AD012115310509F1D901F3CFC1
:100810009D01DA013383228360817181860F971FE6
:100820008217930769F4EC0128813981260F371F5D
:100830002E5F3F4F318320838A819B819383828304
:10084000452B29F4F0935101E093500142C01396D7
:10085000FC93EE931297ED01499159919E01240F5B
:10086000351FE217F30771F480819181840F951F82
:10087000029611969C938E938281938113969C93FA
:100880008E931297E0E0F0E0D80112968D919C9142
:100890001397009719F0F8018C01F6CF8D919C9178
:1008A00098012E5F3F4F820F931F20914E01309190
:1008B0004F012817390769F4309729F41092510134
:1008C0001092500102C01382128210934F010093C4
:1008D0004E01DF91CF911F910F910895FC0105907A
:1008E000615070400110D8F7809590958E0F9F1F32
:1008F0000895DC0101C06D9341505040E0F7089528
:10090000FC016150704001900110D8F780959095DE
:100910008E0F9F1F08950F931F93CF93DF93FB01BB
:10092000238121FD03C08FEF9FEF28C022FF16C057
:1009300046815781248135814217530744F4A081B1
:10094000B1819D012F5F3F4F318320838C9326819E
:1009500037812F5F3F4F3783268310C0EB01092F6C
:10096000182F0084F185E02D0995892BE1F68E8101
:100970009F8101969F838E83812F902FDF91CF914E
:100980001F910F910895FA01AA27283051F12031C3
:1009900081F1E8946F936E7F6E5F7F4F8F4F9F4F13
:1009A000AF4FB1E03ED0B4E03CD0670F781F891F55
:1009B0009A1FA11D680F791F8A1F911DA11D6A0F23
:1009C000711D811D911DA11D20D009F468943F91D6
:1009D0002AE0269F11243019305D3193DEF6CF01D5
:1009E0000895462F4770405D4193B3E00FD0C9F79B
:1009F000F6CF462F4F70405D4A3318F0495D31FD08
:100A00004052419302D0A9F7EACFB4E0A69597955A
:100A1000879577956795BA95C9F700976105710530
:100A200008959B01AC010A2E06945795479537957A
:100A30002795BA95C9F7620F731F841F951FA01DD4
:100A400008952F923F924F925F926F927F928F9272
:100A50009F92AF92BF92CF92DF92EF92FF920F934D
:100A60001F93CF93DF93CDB7DEB7CA1BDB0B0FB657
:100A7000F894DEBF0FBECDBF09942A883988488814
:100A80005F846E847D848C849B84AA84B984C884AA
:100A9000DF80EE80FD800C811B81AA81B981CE0FA1
:100AA000D11D0FB6F894DEBF0FBECDBFED01089586
:040AB000F894FFCFE8
:060AB400000052012000C9
:00000001FF
